{
  "contractName": "Item",
  "abi": [
    {
      "inputs": [
        {
          "internalType": "contract ItemManager",
          "name": "_m",
          "type": "address"
        },
        {
          "internalType": "uint256",
          "name": "_p",
          "type": "uint256"
        },
        {
          "internalType": "uint256",
          "name": "_i",
          "type": "uint256"
        }
      ],
      "stateMutability": "nonpayable",
      "type": "constructor"
    },
    {
      "stateMutability": "nonpayable",
      "type": "fallback"
    },
    {
      "inputs": [],
      "name": "index",
      "outputs": [
        {
          "internalType": "uint256",
          "name": "",
          "type": "uint256"
        }
      ],
      "stateMutability": "view",
      "type": "function"
    },
    {
      "inputs": [],
      "name": "paid",
      "outputs": [
        {
          "internalType": "bool",
          "name": "",
          "type": "bool"
        }
      ],
      "stateMutability": "view",
      "type": "function"
    },
    {
      "inputs": [],
      "name": "price",
      "outputs": [
        {
          "internalType": "uint256",
          "name": "",
          "type": "uint256"
        }
      ],
      "stateMutability": "view",
      "type": "function"
    },
    {
      "stateMutability": "payable",
      "type": "receive"
    }
  ],
  "bytecode": "0x608060405234801561001057600080fd5b5060405161065b38038061065b833981810160405281019061003291906100b3565b816001819055508060028190555082600360006101000a81548173ffffffffffffffffffffffffffffffffffffffff021916908373ffffffffffffffffffffffffffffffffffffffff16021790555050505061017e565b60008151905061009881610150565b92915050565b6000815190506100ad81610167565b92915050565b6000806000606084860312156100c857600080fd5b60006100d686828701610089565b93505060206100e78682870161009e565b92505060406100f88682870161009e565b9150509250925092565b600061010d82610126565b9050919050565b600061011f82610102565b9050919050565b600073ffffffffffffffffffffffffffffffffffffffff82169050919050565b6000819050919050565b61015981610114565b811461016457600080fd5b50565b61017081610146565b811461017b57600080fd5b50565b6104ce8061018d6000396000f3fe6080604052600436106100385760003560e01c8063295b4e17146102165780632986c0e514610241578063a035b1fe1461026c57610207565b366102075760008054906101000a900460ff161561008b576040517f08c379a00000000000000000000000000000000000000000000000000000000081526004016100829061037b565b60405180910390fd5b6000600360009054906101000a900473ffffffffffffffffffffffffffffffffffffffff1673ffffffffffffffffffffffffffffffffffffffff16346002546040516024016100da91906103bb565b6040516020818303038152906040527feb86cf28000000000000000000000000000000000000000000000000000000007bffffffffffffffffffffffffffffffffffffffffffffffffffffffff19166020820180517bffffffffffffffffffffffffffffffffffffffffffffffffffffffff83818316178352505050506040516101649190610349565b60006040518083038185875af1925050503d80600081146101a1576040519150601f19603f3d011682016040523d82523d6000602084013e6101a6565b606091505b50509050806101ea576040517f08c379a00000000000000000000000000000000000000000000000000000000081526004016101e19061039b565b60405180910390fd5b60016000806101000a81548160ff02191690831515021790555050005b34801561021357600080fd5b50005b34801561022257600080fd5b5061022b610297565b6040516102389190610360565b60405180910390f35b34801561024d57600080fd5b506102566102a8565b60405161026391906103bb565b60405180910390f35b34801561027857600080fd5b506102816102ae565b60405161028e91906103bb565b60405180910390f35b60008054906101000a900460ff1681565b60025481565b60015481565b6102bd816103fd565b82525050565b60006102ce826103d6565b6102d881856103e1565b93506102e8818560208601610413565b80840191505092915050565b60006103016011836103ec565b915061030c82610446565b602082019050919050565b60006103246017836103ec565b915061032f8261046f565b602082019050919050565b61034381610409565b82525050565b600061035582846102c3565b915081905092915050565b600060208201905061037560008301846102b4565b92915050565b60006020820190508181036000830152610394816102f4565b9050919050565b600060208201905081810360008301526103b481610317565b9050919050565b60006020820190506103d0600083018461033a565b92915050565b600081519050919050565b600081905092915050565b600082825260208201905092915050565b60008115159050919050565b6000819050919050565b60005b83811015610431578082015181840152602081019050610416565b83811115610440576000848401525b50505050565b7f4974656d20616c72656164792070616964000000000000000000000000000000600082015250565b7f5472616e73616374696f6e20556e73756365737366756c00000000000000000060008201525056fea264697066735822122085e9c56ef392ad10a8554c5c8192e5575ec396e10f8d7a41ced2d1377290cd1764736f6c63430008030033",
  "immutableReferences": {},
  "source": "//SPDX-License-Identifier: GPL-3.0 \r\npragma solidity ^0.8.1;\r\nimport \"./ItemManager.sol\";\r\ncontract Item {\r\n    bool public paid;\r\n    uint256 public price;\r\n    uint256 public index;\r\n    ItemManager manager;\r\n    \r\n    constructor(ItemManager _m, uint256 _p, uint256 _i){\r\n        price=_p;\r\n        index=_i;\r\n        manager=_m;\r\n    }\r\n    receive() external payable{\r\n       require(!paid,\"Item already paid\");\r\n       (bool status,)=address(manager).call{value:msg.value}(abi.encodeWithSignature(\"triggerpayment(uint256)\",index)); \r\n       require(status,\"Transaction Unsucessful\");\r\n       paid=true;\r\n    }\r\n  fallback() external{}\r\n    \r\n}",
  "sourcePath": "C:\\Users\\shash\\Desktop\\Supply_Chain\\contracts\\Item.sol",
  "compiler": {
    "name": "solc",
    "version": "0.8.3+commit.8d00100c.Emscripten.clang"
  },
  "schemaVersion": "3.4.3",
  "updatedAt": "2021-09-18T03:49:57.920Z",
  "devdoc": {
    "kind": "dev",
    "methods": {},
    "version": 1
  },
  "userdoc": {
    "kind": "user",
    "methods": {},
    "version": 1
  }
}