{
  "contractName": "ItemManager",
  "abi": [
    {
      "anonymous": false,
      "inputs": [
        {
          "indexed": true,
          "internalType": "address",
          "name": "previousOwner",
          "type": "address"
        },
        {
          "indexed": true,
          "internalType": "address",
          "name": "newOwner",
          "type": "address"
        }
      ],
      "name": "OwnershipTransferred",
      "type": "event"
    },
    {
      "anonymous": false,
      "inputs": [
        {
          "indexed": false,
          "internalType": "uint256",
          "name": "Index",
          "type": "uint256"
        },
        {
          "indexed": false,
          "internalType": "uint256",
          "name": "step",
          "type": "uint256"
        },
        {
          "indexed": false,
          "internalType": "address",
          "name": "loc",
          "type": "address"
        }
      ],
      "name": "step",
      "type": "event"
    },
    {
      "inputs": [
        {
          "internalType": "uint256",
          "name": "",
          "type": "uint256"
        }
      ],
      "name": "itemlist",
      "outputs": [
        {
          "internalType": "contract Item",
          "name": "i",
          "type": "address"
        },
        {
          "internalType": "uint256",
          "name": "price",
          "type": "uint256"
        },
        {
          "internalType": "string",
          "name": "name",
          "type": "string"
        },
        {
          "internalType": "enum ItemManager.state",
          "name": "istatus",
          "type": "uint8"
        }
      ],
      "stateMutability": "view",
      "type": "function",
      "constant": true
    },
    {
      "inputs": [],
      "name": "owner",
      "outputs": [
        {
          "internalType": "address",
          "name": "",
          "type": "address"
        }
      ],
      "stateMutability": "view",
      "type": "function",
      "constant": true
    },
    {
      "inputs": [],
      "name": "renounceOwnership",
      "outputs": [],
      "stateMutability": "nonpayable",
      "type": "function"
    },
    {
      "inputs": [
        {
          "internalType": "address",
          "name": "newOwner",
          "type": "address"
        }
      ],
      "name": "transferOwnership",
      "outputs": [],
      "stateMutability": "nonpayable",
      "type": "function"
    },
    {
      "inputs": [
        {
          "internalType": "string",
          "name": "_name",
          "type": "string"
        },
        {
          "internalType": "uint256",
          "name": "_p",
          "type": "uint256"
        }
      ],
      "name": "createitem",
      "outputs": [],
      "stateMutability": "nonpayable",
      "type": "function"
    },
    {
      "inputs": [
        {
          "internalType": "uint256",
          "name": "_i",
          "type": "uint256"
        }
      ],
      "name": "gets",
      "outputs": [
        {
          "internalType": "enum ItemManager.state",
          "name": "",
          "type": "uint8"
        }
      ],
      "stateMutability": "view",
      "type": "function",
      "constant": true
    },
    {
      "inputs": [
        {
          "internalType": "uint256",
          "name": "_i",
          "type": "uint256"
        }
      ],
      "name": "triggerpayment",
      "outputs": [],
      "stateMutability": "payable",
      "type": "function",
      "payable": true
    },
    {
      "inputs": [
        {
          "internalType": "uint256",
          "name": "_i",
          "type": "uint256"
        }
      ],
      "name": "triggerdelivery",
      "outputs": [],
      "stateMutability": "nonpayable",
      "type": "function"
    }
  ],
  "bytecode": "0x608060405234801561001057600080fd5b5061002d61002261003260201b60201c565b61003a60201b60201c565b6100fe565b600033905090565b60008060009054906101000a900473ffffffffffffffffffffffffffffffffffffffff169050816000806101000a81548173ffffffffffffffffffffffffffffffffffffffff021916908373ffffffffffffffffffffffffffffffffffffffff1602179055508173ffffffffffffffffffffffffffffffffffffffff168173ffffffffffffffffffffffffffffffffffffffff167f8be0079c531659141344cd1fd0a4f28419497f9722a3daafe3b4186f6b6457e060405160405180910390a35050565b611cf98061010d6000396000f3fe608060405260043610620000865760003560e01c8063d30f3f481162000055578063d30f3f48146200014a578063dc03e062146200018e578063eb86cf2814620001bc578063f2fde38b14620001dc5762000086565b8063715018a6146200008b5780638da5cb5b14620000a5578063a3554eba14620000d5578063b19871bd146200011c575b600080fd5b3480156200009857600080fd5b50620000a36200020a565b005b348015620000b257600080fd5b50620000bd6200029b565b604051620000cc919062000fe9565b60405180910390f35b348015620000e257600080fd5b50620001016004803603810190620000fb919062000e58565b620002c4565b60405162000113949392919062001043565b60405180910390f35b3480156200012957600080fd5b5062000148600480360381019062000142919062000dfe565b620003b1565b005b3480156200015757600080fd5b5062000176600480360381019062000170919062000e58565b620005e1565b60405162000185919062001097565b60405180910390f35b3480156200019b57600080fd5b50620001ba6004803603810190620001b4919062000e58565b6200060e565b005b620001da6004803603810190620001d4919062000e58565b6200086f565b005b348015620001e957600080fd5b5062000208600480360381019062000202919062000dd2565b62000aa4565b005b6200021462000ba8565b73ffffffffffffffffffffffffffffffffffffffff16620002346200029b565b73ffffffffffffffffffffffffffffffffffffffff16146200028d576040517f08c379a00000000000000000000000000000000000000000000000000000000081526004016200028490620010f8565b60405180910390fd5b62000299600062000bb0565b565b60008060009054906101000a900473ffffffffffffffffffffffffffffffffffffffff16905090565b60016020528060005260406000206000915090508060000160009054906101000a900473ffffffffffffffffffffffffffffffffffffffff16908060010154908060020180546200031590620013a6565b80601f01602080910402602001604051908101604052809291908181526020018280546200034390620013a6565b8015620003945780601f10620003685761010080835404028352916020019162000394565b820191906000526020600020905b8154815290600101906020018083116200037657829003601f168201915b5050505050908060030160009054906101000a900460ff16905084565b620003bb62000ba8565b73ffffffffffffffffffffffffffffffffffffffff16620003db6200029b565b73ffffffffffffffffffffffffffffffffffffffff161462000434576040517f08c379a00000000000000000000000000000000000000000000000000000000081526004016200042b90620010f8565b60405180910390fd5b8160016000600254815260200190815260200160002060020190805190602001906200046292919062000c74565b508060016000600254815260200190815260200160002060010181905550600060016000600254815260200190815260200160002060030160006101000a81548160ff02191690836002811115620004e3577f4e487b7100000000000000000000000000000000000000000000000000000000600052602160045260246000fd5b021790555060003082600254604051620004fd9062000d05565b6200050b9392919062001006565b604051809103906000f08015801562000528573d6000803e3d6000fd5b5090508060016000600254815260200190815260200160002060000160006101000a81548173ffffffffffffffffffffffffffffffffffffffff021916908373ffffffffffffffffffffffffffffffffffffffff1602179055507f69cd6d6ecb271cca78666973a908980aaea478ab41fa307db28d48ee9d07f7fe600254600083604051620005ba939291906200113c565b60405180910390a160026000815480929190620005d79062001412565b9190505550505050565b60006001600083815260200190815260200160002060030160009054906101000a900460ff169050919050565b8060018060028111156200064b577f4e487b7100000000000000000000000000000000000000000000000000000000600052602160045260246000fd5b600281111562000684577f4e487b7100000000000000000000000000000000000000000000000000000000600052602160045260246000fd5b6200068f83620005e1565b6002811115620006c8577f4e487b7100000000000000000000000000000000000000000000000000000000600052602160045260246000fd5b146200070b576040517f08c379a00000000000000000000000000000000000000000000000000000000081526004016200070290620010b4565b60405180910390fd5b6200071562000ba8565b73ffffffffffffffffffffffffffffffffffffffff16620007356200029b565b73ffffffffffffffffffffffffffffffffffffffff16146200078e576040517f08c379a00000000000000000000000000000000000000000000000000000000081526004016200078590620010f8565b60405180910390fd5b600260016000600254815260200190815260200160002060030160006101000a81548160ff02191690836002811115620007f1577f4e487b7100000000000000000000000000000000000000000000000000000000600052602160045260246000fd5b02179055507f69cd6d6ecb271cca78666973a908980aaea478ab41fa307db28d48ee9d07f7fe8360026001600087815260200190815260200160002060000160009054906101000a900473ffffffffffffffffffffffffffffffffffffffff166040516200086293929190620011b6565b60405180910390a1505050565b806000806002811115620008ac577f4e487b7100000000000000000000000000000000000000000000000000000000600052602160045260246000fd5b6002811115620008e5577f4e487b7100000000000000000000000000000000000000000000000000000000600052602160045260246000fd5b620008f083620005e1565b600281111562000929577f4e487b7100000000000000000000000000000000000000000000000000000000600052602160045260246000fd5b146200096c576040517f08c379a00000000000000000000000000000000000000000000000000000000081526004016200096390620010b4565b60405180910390fd5b34600160008581526020019081526020016000206001015414620009c7576040517f08c379a0000000000000000000000000000000000000000000000000000000008152600401620009be906200111a565b60405180910390fd5b600180600085815260200190815260200160002060030160006101000a81548160ff0219169083600281111562000a27577f4e487b7100000000000000000000000000000000000000000000000000000000600052602160045260246000fd5b02179055507f69cd6d6ecb271cca78666973a908980aaea478ab41fa307db28d48ee9d07f7fe83600180600087815260200190815260200160002060000160009054906101000a900473ffffffffffffffffffffffffffffffffffffffff1660405162000a979392919062001179565b60405180910390a1505050565b62000aae62000ba8565b73ffffffffffffffffffffffffffffffffffffffff1662000ace6200029b565b73ffffffffffffffffffffffffffffffffffffffff161462000b27576040517f08c379a000000000000000000000000000000000000000000000000000000000815260040162000b1e90620010f8565b60405180910390fd5b600073ffffffffffffffffffffffffffffffffffffffff168173ffffffffffffffffffffffffffffffffffffffff16141562000b9a576040517f08c379a000000000000000000000000000000000000000000000000000000000815260040162000b9190620010d6565b60405180910390fd5b62000ba58162000bb0565b50565b600033905090565b60008060009054906101000a900473ffffffffffffffffffffffffffffffffffffffff169050816000806101000a81548173ffffffffffffffffffffffffffffffffffffffff021916908373ffffffffffffffffffffffffffffffffffffffff1602179055508173ffffffffffffffffffffffffffffffffffffffff168173ffffffffffffffffffffffffffffffffffffffff167f8be0079c531659141344cd1fd0a4f28419497f9722a3daafe3b4186f6b6457e060405160405180910390a35050565b82805462000c8290620013a6565b90600052602060002090601f01602090048101928262000ca6576000855562000cf2565b82601f1062000cc157805160ff191683800117855562000cf2565b8280016001018555821562000cf2579182015b8281111562000cf157825182559160200191906001019062000cd4565b5b50905062000d01919062000d13565b5090565b61065b806200166983390190565b5b8082111562000d2e57600081600090555060010162000d14565b5090565b600062000d4962000d43846200121c565b620011f3565b90508281526020810184848401111562000d6257600080fd5b62000d6f84828562001361565b509392505050565b60008135905062000d888162001634565b92915050565b600082601f83011262000da057600080fd5b813562000db284826020860162000d32565b91505092915050565b60008135905062000dcc816200164e565b92915050565b60006020828403121562000de557600080fd5b600062000df58482850162000d77565b91505092915050565b6000806040838503121562000e1257600080fd5b600083013567ffffffffffffffff81111562000e2d57600080fd5b62000e3b8582860162000d8e565b925050602062000e4e8582860162000dbb565b9150509250929050565b60006020828403121562000e6b57600080fd5b600062000e7b8482850162000dbb565b91505092915050565b62000e8f816200126e565b82525050565b62000ea081620012c1565b82525050565b62000eb181620012e9565b82525050565b62000ec28162001311565b82525050565b62000ed38162001325565b82525050565b62000ee48162001339565b82525050565b62000ef5816200134d565b82525050565b600062000f088262001252565b62000f1481856200125d565b935062000f2681856020860162001370565b62000f31816200151c565b840191505092915050565b600062000f4b601c836200125d565b915062000f58826200152d565b602082019050919050565b600062000f726026836200125d565b915062000f7f8262001556565b604082019050919050565b600062000f996020836200125d565b915062000fa682620015a5565b602082019050919050565b600062000fc06029836200125d565b915062000fcd82620015ce565b604082019050919050565b62000fe381620012b7565b82525050565b600060208201905062001000600083018462000e84565b92915050565b60006060820190506200101d600083018662000e95565b6200102c602083018562000fd8565b6200103b604083018462000fd8565b949350505050565b60006080820190506200105a600083018762000ea6565b62001069602083018662000fd8565b81810360408301526200107d818562000efb565b90506200108e606083018462000eb7565b95945050505050565b6000602082019050620010ae600083018462000eb7565b92915050565b60006020820190508181036000830152620010cf8162000f3c565b9050919050565b60006020820190508181036000830152620010f18162000f63565b9050919050565b60006020820190508181036000830152620011138162000f8a565b9050919050565b60006020820190508181036000830152620011358162000fb1565b9050919050565b600060608201905062001153600083018662000fd8565b62001162602083018562000ec8565b62001171604083018462000e84565b949350505050565b600060608201905062001190600083018662000fd8565b6200119f602083018562000ed9565b620011ae604083018462000e84565b949350505050565b6000606082019050620011cd600083018662000fd8565b620011dc602083018562000eea565b620011eb604083018462000e84565b949350505050565b6000620011ff62001212565b90506200120d8282620013dc565b919050565b6000604051905090565b600067ffffffffffffffff8211156200123a5762001239620014ed565b5b62001245826200151c565b9050602081019050919050565b600081519050919050565b600082825260208201905092915050565b60006200127b8262001297565b9050919050565b600081905062001292826200161d565b919050565b600073ffffffffffffffffffffffffffffffffffffffff82169050919050565b6000819050919050565b6000620012ce82620012d5565b9050919050565b6000620012e28262001297565b9050919050565b6000620012f682620012fd565b9050919050565b60006200130a8262001297565b9050919050565b60006200131e8262001282565b9050919050565b60006200133282620012b7565b9050919050565b60006200134682620012b7565b9050919050565b60006200135a82620012b7565b9050919050565b82818337600083830152505050565b60005b838110156200139057808201518184015260208101905062001373565b83811115620013a0576000848401525b50505050565b60006002820490506001821680620013bf57607f821691505b60208210811415620013d657620013d5620014be565b5b50919050565b620013e7826200151c565b810181811067ffffffffffffffff82111715620014095762001408620014ed565b5b80604052505050565b60006200141f82620012b7565b91507fffffffffffffffffffffffffffffffffffffffffffffffffffffffffffffffff82141562001455576200145462001460565b5b600182019050919050565b7f4e487b7100000000000000000000000000000000000000000000000000000000600052601160045260246000fd5b7f4e487b7100000000000000000000000000000000000000000000000000000000600052602160045260246000fd5b7f4e487b7100000000000000000000000000000000000000000000000000000000600052602260045260246000fd5b7f4e487b7100000000000000000000000000000000000000000000000000000000600052604160045260246000fd5b6000601f19601f8301169050919050565b7f4974656d206973206675727468657220696e2074686520636861696e00000000600082015250565b7f4f776e61626c653a206e6577206f776e657220697320746865207a65726f206160008201527f6464726573730000000000000000000000000000000000000000000000000000602082015250565b7f4f776e61626c653a2063616c6c6572206973206e6f7420746865206f776e6572600082015250565b7f46756c6c207061796d656e7420726571756972656420666f722066757274686560008201527f722070726f636573730000000000000000000000000000000000000000000000602082015250565b600381106200163157620016306200148f565b5b50565b6200163f816200126e565b81146200164b57600080fd5b50565b6200165981620012b7565b81146200166557600080fd5b5056fe608060405234801561001057600080fd5b5060405161065b38038061065b833981810160405281019061003291906100b3565b816001819055508060028190555082600360006101000a81548173ffffffffffffffffffffffffffffffffffffffff021916908373ffffffffffffffffffffffffffffffffffffffff16021790555050505061017e565b60008151905061009881610150565b92915050565b6000815190506100ad81610167565b92915050565b6000806000606084860312156100c857600080fd5b60006100d686828701610089565b93505060206100e78682870161009e565b92505060406100f88682870161009e565b9150509250925092565b600061010d82610126565b9050919050565b600061011f82610102565b9050919050565b600073ffffffffffffffffffffffffffffffffffffffff82169050919050565b6000819050919050565b61015981610114565b811461016457600080fd5b50565b61017081610146565b811461017b57600080fd5b50565b6104ce8061018d6000396000f3fe6080604052600436106100385760003560e01c8063295b4e17146102165780632986c0e514610241578063a035b1fe1461026c57610207565b366102075760008054906101000a900460ff161561008b576040517f08c379a00000000000000000000000000000000000000000000000000000000081526004016100829061037b565b60405180910390fd5b6000600360009054906101000a900473ffffffffffffffffffffffffffffffffffffffff1673ffffffffffffffffffffffffffffffffffffffff16346002546040516024016100da91906103bb565b6040516020818303038152906040527feb86cf28000000000000000000000000000000000000000000000000000000007bffffffffffffffffffffffffffffffffffffffffffffffffffffffff19166020820180517bffffffffffffffffffffffffffffffffffffffffffffffffffffffff83818316178352505050506040516101649190610349565b60006040518083038185875af1925050503d80600081146101a1576040519150601f19603f3d011682016040523d82523d6000602084013e6101a6565b606091505b50509050806101ea576040517f08c379a00000000000000000000000000000000000000000000000000000000081526004016101e19061039b565b60405180910390fd5b60016000806101000a81548160ff02191690831515021790555050005b34801561021357600080fd5b50005b34801561022257600080fd5b5061022b610297565b6040516102389190610360565b60405180910390f35b34801561024d57600080fd5b506102566102a8565b60405161026391906103bb565b60405180910390f35b34801561027857600080fd5b506102816102ae565b60405161028e91906103bb565b60405180910390f35b60008054906101000a900460ff1681565b60025481565b60015481565b6102bd816103fd565b82525050565b60006102ce826103d6565b6102d881856103e1565b93506102e8818560208601610413565b80840191505092915050565b60006103016011836103ec565b915061030c82610446565b602082019050919050565b60006103246017836103ec565b915061032f8261046f565b602082019050919050565b61034381610409565b82525050565b600061035582846102c3565b915081905092915050565b600060208201905061037560008301846102b4565b92915050565b60006020820190508181036000830152610394816102f4565b9050919050565b600060208201905081810360008301526103b481610317565b9050919050565b60006020820190506103d0600083018461033a565b92915050565b600081519050919050565b600081905092915050565b600082825260208201905092915050565b60008115159050919050565b6000819050919050565b60005b83811015610431578082015181840152602081019050610416565b83811115610440576000848401525b50505050565b7f4974656d20616c72656164792070616964000000000000000000000000000000600082015250565b7f5472616e73616374696f6e20556e73756365737366756c00000000000000000060008201525056fea264697066735822122085e9c56ef392ad10a8554c5c8192e5575ec396e10f8d7a41ced2d1377290cd1764736f6c63430008030033a2646970667358221220566a0590acc670b8541332518e2acc09ab2a093a98a9f718ca190e0617946db864736f6c63430008030033",
  "immutableReferences": {},
  "source": "//SPDX-License-Identifier: GPL-3.0 \r\npragma solidity ^0.8.1;\r\nimport \"@openzeppelin/contracts/access/Ownable.sol\";\r\nimport \"./Item.sol\";\r\ncontract ItemManager is Ownable{\r\n   \r\n    struct item{\r\n        Item i;\r\n        uint256 price;\r\n        string name;\r\n        state istatus;\r\n    }\r\n    mapping(uint=>item) public itemlist;\r\n    uint256 index;\r\n    enum state{created,paid,delivered}\r\n    event step(uint Index, uint step, address loc);\r\n    function createitem(string memory _name, uint256 _p) public onlyOwner{\r\n        itemlist[index].name=_name;\r\n        itemlist[index].price=_p;\r\n        itemlist[index].istatus=state.created;\r\n        Item itemo=new Item(this,_p,index);\r\n        itemlist[index].i=itemo;\r\n        emit step(index,0,address(itemo));\r\n        index++;\r\n    } \r\n    function gets(uint256 _i) view public returns(state){\r\n        return itemlist[_i].istatus;\r\n    }\r\n    modifier allt(uint256 _i, uint _s){\r\n        require(gets(_i)==state(_s),\"Item is further in the chain\");\r\n        _;\r\n    }\r\n    function triggerpayment(uint256 _i) public payable allt(_i,0){\r\n        require(itemlist[_i].price==msg.value,\"Full payment required for further process\");\r\n        itemlist[_i].istatus=state.paid;\r\n        emit step(_i,1,address(itemlist[_i].i));\r\n    }\r\n         function triggerdelivery(uint256 _i) public allt(_i,1) onlyOwner{\r\n        itemlist[index].istatus=state.delivered;\r\n        emit step(_i,2,address(itemlist[_i].i));\r\n    }\r\n}",
  "sourcePath": "C:\\Users\\shash\\Desktop\\Supply_Chain\\contracts\\ItemManager.sol",
  "compiler": {
    "name": "solc",
    "version": "0.8.3+commit.8d00100c.Emscripten.clang"
  },
  "schemaVersion": "3.4.3",
  "updatedAt": "2021-09-18T03:50:00.948Z",
  "networkType": "ethereum",
  "devdoc": {
    "kind": "dev",
    "methods": {
      "owner()": {
        "details": "Returns the address of the current owner."
      },
      "renounceOwnership()": {
        "details": "Leaves the contract without owner. It will not be possible to call `onlyOwner` functions anymore. Can only be called by the current owner. NOTE: Renouncing ownership will leave the contract without an owner, thereby removing any functionality that is only available to the owner."
      },
      "transferOwnership(address)": {
        "details": "Transfers ownership of the contract to a new account (`newOwner`). Can only be called by the current owner."
      }
    },
    "version": 1
  },
  "userdoc": {
    "kind": "user",
    "methods": {},
    "version": 1
  }
}